{
  "contractName": "SmartOdometer",
  "abi": [
    {
      "anonymous": false,
      "inputs": [
        {
          "indexed": false,
          "internalType": "string",
          "name": "vin",
          "type": "string"
        },
        {
          "indexed": false,
          "internalType": "string",
          "name": "make",
          "type": "string"
        },
        {
          "indexed": false,
          "internalType": "string",
          "name": "model",
          "type": "string"
        },
        {
          "indexed": false,
          "internalType": "uint256",
          "name": "year",
          "type": "uint256"
        },
        {
          "indexed": false,
          "internalType": "uint256",
          "name": "mileage",
          "type": "uint256"
        },
        {
          "indexed": false,
          "internalType": "address",
          "name": "owner",
          "type": "address"
        }
      ],
      "name": "VehicleAdded",
      "type": "event"
    },
    {
      "anonymous": false,
      "inputs": [
        {
          "indexed": false,
          "internalType": "string",
          "name": "vin",
          "type": "string"
        },
        {
          "indexed": false,
          "internalType": "string",
          "name": "make",
          "type": "string"
        },
        {
          "indexed": false,
          "internalType": "string",
          "name": "model",
          "type": "string"
        },
        {
          "indexed": false,
          "internalType": "uint256",
          "name": "year",
          "type": "uint256"
        },
        {
          "indexed": false,
          "internalType": "uint256",
          "name": "mileage",
          "type": "uint256"
        },
        {
          "indexed": false,
          "internalType": "address",
          "name": "owner",
          "type": "address"
        }
      ],
      "name": "VehicleUpdated",
      "type": "event"
    },
    {
      "inputs": [
        {
          "internalType": "string",
          "name": "vin",
          "type": "string"
        },
        {
          "internalType": "string",
          "name": "make",
          "type": "string"
        },
        {
          "internalType": "string",
          "name": "model",
          "type": "string"
        },
        {
          "internalType": "uint256",
          "name": "year",
          "type": "uint256"
        },
        {
          "internalType": "uint256",
          "name": "mileage",
          "type": "uint256"
        }
      ],
      "name": "addVehicle",
      "outputs": [],
      "stateMutability": "nonpayable",
      "type": "function"
    },
    {
      "inputs": [
        {
          "internalType": "string",
          "name": "vin",
          "type": "string"
        },
        {
          "internalType": "string",
          "name": "make",
          "type": "string"
        },
        {
          "internalType": "string",
          "name": "model",
          "type": "string"
        },
        {
          "internalType": "uint256",
          "name": "year",
          "type": "uint256"
        },
        {
          "internalType": "uint256",
          "name": "mileage",
          "type": "uint256"
        }
      ],
      "name": "updateVehicle",
      "outputs": [],
      "stateMutability": "nonpayable",
      "type": "function"
    },
    {
      "inputs": [
        {
          "internalType": "string",
          "name": "vin",
          "type": "string"
        }
      ],
      "name": "fetchVehicle",
      "outputs": [
        {
          "internalType": "string",
          "name": "",
          "type": "string"
        },
        {
          "internalType": "string",
          "name": "",
          "type": "string"
        },
        {
          "internalType": "string",
          "name": "",
          "type": "string"
        },
        {
          "internalType": "uint256",
          "name": "",
          "type": "uint256"
        },
        {
          "internalType": "uint256",
          "name": "",
          "type": "uint256"
        },
        {
          "internalType": "address",
          "name": "",
          "type": "address"
        }
      ],
      "stateMutability": "view",
      "type": "function"
    }
  ],
  "bytecode": "0x608060405234801561001057600080fd5b50610e56806100206000396000f3fe608060405234801561001057600080fd5b50600436106100415760003560e01c80630c1d215f146100465780634d93115914610062578063a9b22e511461007e575b600080fd5b610060600480360381019061005b91906108fc565b6100b3565b005b61007c600480360381019061007791906108fc565b610280565b005b610098600480360381019061009391906108bb565b6104a1565b6040516100aa96959493929190610b8c565b60405180910390f35b600080866040516100c49190610b75565b908152602001604051809103902060000180546100e090610d68565b905014610122576040517f08c379a000000000000000000000000000000000000000000000000000000000815260040161011990610c22565b60405180910390fd5b6040518060c001604052808681526020018581526020018481526020018381526020018281526020013373ffffffffffffffffffffffffffffffffffffffff168152506000866040516101759190610b75565b9081526020016040518091039020600082015181600001908051906020019061019f92919061079b565b5060208201518160010190805190602001906101bc92919061079b565b5060408201518160020190805190602001906101d992919061079b565b50606082015181600301556080820151816004015560a08201518160050160006101000a81548173ffffffffffffffffffffffffffffffffffffffff021916908373ffffffffffffffffffffffffffffffffffffffff1602179055509050507f215fdc673351f9fc31925fddc8997013af2720d8f87dd009d58773a61a41780085858585853360405161027196959493929190610b8c565b60405180910390a15050505050565b843373ffffffffffffffffffffffffffffffffffffffff166000826040516102a89190610b75565b908152602001604051809103902060050160009054906101000a900473ffffffffffffffffffffffffffffffffffffffff1673ffffffffffffffffffffffffffffffffffffffff1614610330576040517f08c379a000000000000000000000000000000000000000000000000000000000815260040161032790610c02565b60405180910390fd5b600080876040516103419190610b75565b9081526020016040518091039020600001805461035d90610d68565b905014156103a0576040517f08c379a000000000000000000000000000000000000000000000000000000000815260040161039790610c42565b60405180910390fd5b846000876040516103b19190610b75565b908152602001604051809103902060010190805190602001906103d592919061079b565b50836000876040516103e79190610b75565b9081526020016040518091039020600201908051906020019061040b92919061079b565b508260008760405161041d9190610b75565b908152602001604051809103902060030181905550816000876040516104439190610b75565b9081526020016040518091039020600401819055507f3a277a4aa984b0eaa6d9ee5b7fd5e8d55bee5ed420e181a7bafc36f7253ef7f886868686863360405161049196959493929190610b8c565b60405180910390a1505050505050565b60608060606000806000806000886040516104bc9190610b75565b908152602001604051809103902060000180546104d890610d68565b9050141561051b576040517f08c379a000000000000000000000000000000000000000000000000000000000815260040161051290610c42565b60405180910390fd5b6000808860405161052c9190610b75565b90815260200160405180910390206040518060c001604052908160008201805461055590610d68565b80601f016020809104026020016040519081016040528092919081815260200182805461058190610d68565b80156105ce5780601f106105a3576101008083540402835291602001916105ce565b820191906000526020600020905b8154815290600101906020018083116105b157829003601f168201915b505050505081526020016001820180546105e790610d68565b80601f016020809104026020016040519081016040528092919081815260200182805461061390610d68565b80156106605780601f1061063557610100808354040283529160200191610660565b820191906000526020600020905b81548152906001019060200180831161064357829003601f168201915b5050505050815260200160028201805461067990610d68565b80601f01602080910402602001604051908101604052809291908181526020018280546106a590610d68565b80156106f25780601f106106c7576101008083540402835291602001916106f2565b820191906000526020600020905b8154815290600101906020018083116106d557829003601f168201915b5050505050815260200160038201548152602001600482015481526020016005820160009054906101000a900473ffffffffffffffffffffffffffffffffffffffff1673ffffffffffffffffffffffffffffffffffffffff1673ffffffffffffffffffffffffffffffffffffffff16815250509050806000015181602001518260400151836060015184608001518560a001519650965096509650965096505091939550919395565b8280546107a790610d68565b90600052602060002090601f0160209004810192826107c95760008555610810565b82601f106107e257805160ff1916838001178555610810565b82800160010185558215610810579182015b8281111561080f5782518255916020019190600101906107f4565b5b50905061081d9190610821565b5090565b5b8082111561083a576000816000905550600101610822565b5090565b600061085161084c84610c93565b610c62565b90508281526020810184848401111561086957600080fd5b610874848285610d26565b509392505050565b600082601f83011261088d57600080fd5b813561089d84826020860161083e565b91505092915050565b6000813590506108b581610e09565b92915050565b6000602082840312156108cd57600080fd5b600082013567ffffffffffffffff8111156108e757600080fd5b6108f38482850161087c565b91505092915050565b600080600080600060a0868803121561091457600080fd5b600086013567ffffffffffffffff81111561092e57600080fd5b61093a8882890161087c565b955050602086013567ffffffffffffffff81111561095757600080fd5b6109638882890161087c565b945050604086013567ffffffffffffffff81111561098057600080fd5b61098c8882890161087c565b935050606061099d888289016108a6565b92505060806109ae888289016108a6565b9150509295509295909350565b6109c481610cea565b82525050565b60006109d582610cc3565b6109df8185610cce565b93506109ef818560208601610d35565b6109f881610df8565b840191505092915050565b6000610a0e82610cc3565b610a188185610cdf565b9350610a28818560208601610d35565b80840191505092915050565b6000610a41602683610cce565b91507f43616c6c6572206973206e6f7420746865206f776e6572206f6620746865207660008301527f656869636c6500000000000000000000000000000000000000000000000000006020830152604082019050919050565b6000610aa7602483610cce565b91507f56656869636c65207769746820746869732056494e20616c726561647920657860008301527f69737473000000000000000000000000000000000000000000000000000000006020830152604082019050919050565b6000610b0d602483610cce565b91507f56656869636c65207769746820746869732056494e20646f6573206e6f74206560008301527f78697374000000000000000000000000000000000000000000000000000000006020830152604082019050919050565b610b6f81610d1c565b82525050565b6000610b818284610a03565b915081905092915050565b600060c0820190508181036000830152610ba681896109ca565b90508181036020830152610bba81886109ca565b90508181036040830152610bce81876109ca565b9050610bdd6060830186610b66565b610bea6080830185610b66565b610bf760a08301846109bb565b979650505050505050565b60006020820190508181036000830152610c1b81610a34565b9050919050565b60006020820190508181036000830152610c3b81610a9a565b9050919050565b60006020820190508181036000830152610c5b81610b00565b9050919050565b6000604051905081810181811067ffffffffffffffff82111715610c8957610c88610dc9565b5b8060405250919050565b600067ffffffffffffffff821115610cae57610cad610dc9565b5b601f19601f8301169050602081019050919050565b600081519050919050565b600082825260208201905092915050565b600081905092915050565b6000610cf582610cfc565b9050919050565b600073ffffffffffffffffffffffffffffffffffffffff82169050919050565b6000819050919050565b82818337600083830152505050565b60005b83811015610d53578082015181840152602081019050610d38565b83811115610d62576000848401525b50505050565b60006002820490506001821680610d8057607f821691505b60208210811415610d9457610d93610d9a565b5b50919050565b7f4e487b7100000000000000000000000000000000000000000000000000000000600052602260045260246000fd5b7f4e487b7100000000000000000000000000000000000000000000000000000000600052604160045260246000fd5b6000601f19601f8301169050919050565b610e1281610d1c565b8114610e1d57600080fd5b5056fea2646970667358221220f113dce2ba0cc14dbf6f7fe2a2b3baecdd75b2d40bcf4fa8d451e6da2e2a208164736f6c63430008000033",
  "immutableReferences": {},
  "source": "// SPDX-License-Identifier: MIT\r\npragma solidity ^0.8.0;\r\n\r\ncontract SmartOdometer {\r\n    // Define a struct to hold vehicle information\r\n    struct Vehicle {\r\n        string vin; // Vehicle Identification Number\r\n        string make;\r\n        string model;\r\n        uint year;\r\n        uint mileage;\r\n        address owner;\r\n    }\r\n\r\n    // Mapping from VIN to Vehicle\r\n    mapping(string => Vehicle) private vehicles;\r\n\r\n    // Events for adding and updating vehicles\r\n    event VehicleAdded(string vin, string make, string model, uint year, uint mileage, address owner);\r\n    event VehicleUpdated(string vin, string make, string model, uint year, uint mileage, address owner);\r\n\r\n    // Modifier to check if the caller is the owner of the vehicle\r\n    modifier onlyOwner(string memory vin) {\r\n        require(vehicles[vin].owner == msg.sender, \"Caller is not the owner of the vehicle\");\r\n        _;\r\n    }\r\n\r\n    // Function to add a new vehicle\r\n    function addVehicle(\r\n        string memory vin,\r\n        string memory make,\r\n        string memory model,\r\n        uint year,\r\n        uint mileage\r\n    ) public {\r\n        require(bytes(vehicles[vin].vin).length == 0, \"Vehicle with this VIN already exists\");\r\n\r\n        vehicles[vin] = Vehicle({\r\n            vin: vin,\r\n            make: make,\r\n            model: model,\r\n            year: year,\r\n            mileage: mileage,\r\n            owner: msg.sender\r\n        });\r\n\r\n        emit VehicleAdded(vin, make, model, year, mileage, msg.sender);\r\n    }\r\n\r\n    // Function to update vehicle data\r\n    function updateVehicle(\r\n        string memory vin,\r\n        string memory make,\r\n        string memory model,\r\n        uint year,\r\n        uint mileage\r\n    ) public onlyOwner(vin) {\r\n        require(bytes(vehicles[vin].vin).length != 0, \"Vehicle with this VIN does not exist\");\r\n\r\n        vehicles[vin].make = make;\r\n        vehicles[vin].model = model;\r\n        vehicles[vin].year = year;\r\n        vehicles[vin].mileage = mileage;\r\n\r\n        emit VehicleUpdated(vin, make, model, year, mileage, msg.sender);\r\n    }\r\n\r\n    // Function to fetch vehicle data\r\n    function fetchVehicle(string memory vin) public view returns (string memory, string memory, string memory, uint, uint, address) {\r\n        require(bytes(vehicles[vin].vin).length != 0, \"Vehicle with this VIN does not exist\");\r\n\r\n        Vehicle memory v = vehicles[vin];\r\n        return (v.vin, v.make, v.model, v.year, v.mileage, v.owner);\r\n    }\r\n}\r\n",
  "sourcePath": "D:\\4th year project\\Smart-Odometer\\blockchain\\contracts\\smartOdometer.sol",
  "compiler": {
    "name": "solc",
    "version": "0.8.0+commit.c7dfd78e.Emscripten.clang"
  },
  "schemaVersion": "3.4.16",
  "updatedAt": "2024-06-19T10:56:09.934Z",
  "devdoc": {
    "kind": "dev",
    "methods": {},
    "version": 1
  },
  "userdoc": {
    "kind": "user",
    "methods": {},
    "version": 1
  }
}